{
  "contractName": "TEA",
  "abi": [
    {
      "anonymous": false,
      "inputs": [
        {
          "indexed": true,
          "internalType": "address",
          "name": "owner",
          "type": "address"
        },
        {
          "indexed": true,
          "internalType": "address",
          "name": "spender",
          "type": "address"
        },
        {
          "indexed": false,
          "internalType": "uint256",
          "name": "amount",
          "type": "uint256"
        }
      ],
      "name": "Approval",
      "type": "event"
    },
    {
      "anonymous": false,
      "inputs": [
        {
          "indexed": true,
          "internalType": "address",
          "name": "delegator",
          "type": "address"
        },
        {
          "indexed": true,
          "internalType": "address",
          "name": "fromDelegate",
          "type": "address"
        },
        {
          "indexed": true,
          "internalType": "address",
          "name": "toDelegate",
          "type": "address"
        }
      ],
      "name": "DelegateChanged",
      "type": "event"
    },
    {
      "anonymous": false,
      "inputs": [
        {
          "indexed": true,
          "internalType": "address",
          "name": "delegate",
          "type": "address"
        },
        {
          "indexed": false,
          "internalType": "uint256",
          "name": "previousBalance",
          "type": "uint256"
        },
        {
          "indexed": false,
          "internalType": "uint256",
          "name": "newBalance",
          "type": "uint256"
        }
      ],
      "name": "DelegateVotesChanged",
      "type": "event"
    },
    {
      "anonymous": false,
      "inputs": [
        {
          "indexed": false,
          "internalType": "address",
          "name": "to",
          "type": "address"
        },
        {
          "indexed": false,
          "internalType": "uint256",
          "name": "amount",
          "type": "uint256"
        }
      ],
      "name": "Mint",
      "type": "event"
    },
    {
      "anonymous": false,
      "inputs": [
        {
          "indexed": false,
          "internalType": "address",
          "name": "oldGov",
          "type": "address"
        },
        {
          "indexed": false,
          "internalType": "address",
          "name": "newGov",
          "type": "address"
        }
      ],
      "name": "NewGov",
      "type": "event"
    },
    {
      "anonymous": false,
      "inputs": [
        {
          "indexed": false,
          "internalType": "address",
          "name": "oldIncentivizer",
          "type": "address"
        },
        {
          "indexed": false,
          "internalType": "address",
          "name": "newIncentivizer",
          "type": "address"
        }
      ],
      "name": "NewIncentivizer",
      "type": "event"
    },
    {
      "anonymous": false,
      "inputs": [
        {
          "indexed": false,
          "internalType": "address",
          "name": "oldPendingGov",
          "type": "address"
        },
        {
          "indexed": false,
          "internalType": "address",
          "name": "newPendingGov",
          "type": "address"
        }
      ],
      "name": "NewPendingGov",
      "type": "event"
    },
    {
      "anonymous": false,
      "inputs": [
        {
          "indexed": false,
          "internalType": "address",
          "name": "oldRebaser",
          "type": "address"
        },
        {
          "indexed": false,
          "internalType": "address",
          "name": "newRebaser",
          "type": "address"
        }
      ],
      "name": "NewRebaser",
      "type": "event"
    },
    {
      "anonymous": false,
      "inputs": [
        {
          "indexed": false,
          "internalType": "uint256",
          "name": "epoch",
          "type": "uint256"
        },
        {
          "indexed": false,
          "internalType": "uint256",
          "name": "prevTeasScalingFactor",
          "type": "uint256"
        },
        {
          "indexed": false,
          "internalType": "uint256",
          "name": "newTeasScalingFactor",
          "type": "uint256"
        }
      ],
      "name": "Rebase",
      "type": "event"
    },
    {
      "anonymous": false,
      "inputs": [
        {
          "indexed": true,
          "internalType": "address",
          "name": "from",
          "type": "address"
        },
        {
          "indexed": true,
          "internalType": "address",
          "name": "to",
          "type": "address"
        },
        {
          "indexed": false,
          "internalType": "uint256",
          "name": "amount",
          "type": "uint256"
        }
      ],
      "name": "Transfer",
      "type": "event"
    },
    {
      "constant": true,
      "inputs": [],
      "name": "BASE",
      "outputs": [
        {
          "internalType": "uint256",
          "name": "",
          "type": "uint256"
        }
      ],
      "payable": false,
      "stateMutability": "view",
      "type": "function"
    },
    {
      "constant": true,
      "inputs": [],
      "name": "DELEGATION_TYPEHASH",
      "outputs": [
        {
          "internalType": "bytes32",
          "name": "",
          "type": "bytes32"
        }
      ],
      "payable": false,
      "stateMutability": "view",
      "type": "function"
    },
    {
      "constant": true,
      "inputs": [],
      "name": "DOMAIN_TYPEHASH",
      "outputs": [
        {
          "internalType": "bytes32",
          "name": "",
          "type": "bytes32"
        }
      ],
      "payable": false,
      "stateMutability": "view",
      "type": "function"
    },
    {
      "constant": false,
      "inputs": [],
      "name": "_acceptGov",
      "outputs": [],
      "payable": false,
      "stateMutability": "nonpayable",
      "type": "function"
    },
    {
      "constant": false,
      "inputs": [
        {
          "internalType": "address",
          "name": "incentivizer_",
          "type": "address"
        }
      ],
      "name": "_setIncentivizer",
      "outputs": [],
      "payable": false,
      "stateMutability": "nonpayable",
      "type": "function"
    },
    {
      "constant": false,
      "inputs": [
        {
          "internalType": "address",
          "name": "pendingGov_",
          "type": "address"
        }
      ],
      "name": "_setPendingGov",
      "outputs": [],
      "payable": false,
      "stateMutability": "nonpayable",
      "type": "function"
    },
    {
      "constant": false,
      "inputs": [
        {
          "internalType": "address",
          "name": "rebaser_",
          "type": "address"
        }
      ],
      "name": "_setRebaser",
      "outputs": [],
      "payable": false,
      "stateMutability": "nonpayable",
      "type": "function"
    },
    {
      "constant": true,
      "inputs": [
        {
          "internalType": "address",
          "name": "owner_",
          "type": "address"
        },
        {
          "internalType": "address",
          "name": "spender",
          "type": "address"
        }
      ],
      "name": "allowance",
      "outputs": [
        {
          "internalType": "uint256",
          "name": "",
          "type": "uint256"
        }
      ],
      "payable": false,
      "stateMutability": "view",
      "type": "function"
    },
    {
      "constant": false,
      "inputs": [
        {
          "internalType": "address",
          "name": "spender",
          "type": "address"
        },
        {
          "internalType": "uint256",
          "name": "value",
          "type": "uint256"
        }
      ],
      "name": "approve",
      "outputs": [
        {
          "internalType": "bool",
          "name": "",
          "type": "bool"
        }
      ],
      "payable": false,
      "stateMutability": "nonpayable",
      "type": "function"
    },
    {
      "constant": true,
      "inputs": [
        {
          "internalType": "address",
          "name": "who",
          "type": "address"
        }
      ],
      "name": "balanceOf",
      "outputs": [
        {
          "internalType": "uint256",
          "name": "",
          "type": "uint256"
        }
      ],
      "payable": false,
      "stateMutability": "view",
      "type": "function"
    },
    {
      "constant": true,
      "inputs": [
        {
          "internalType": "address",
          "name": "who",
          "type": "address"
        }
      ],
      "name": "balanceOfUnderlying",
      "outputs": [
        {
          "internalType": "uint256",
          "name": "",
          "type": "uint256"
        }
      ],
      "payable": false,
      "stateMutability": "view",
      "type": "function"
    },
    {
      "constant": true,
      "inputs": [
        {
          "internalType": "address",
          "name": "",
          "type": "address"
        },
        {
          "internalType": "uint32",
          "name": "",
          "type": "uint32"
        }
      ],
      "name": "checkpoints",
      "outputs": [
        {
          "internalType": "uint32",
          "name": "fromBlock",
          "type": "uint32"
        },
        {
          "internalType": "uint256",
          "name": "votes",
          "type": "uint256"
        }
      ],
      "payable": false,
      "stateMutability": "view",
      "type": "function"
    },
    {
      "constant": true,
      "inputs": [],
      "name": "decimals",
      "outputs": [
        {
          "internalType": "uint8",
          "name": "",
          "type": "uint8"
        }
      ],
      "payable": false,
      "stateMutability": "view",
      "type": "function"
    },
    {
      "constant": false,
      "inputs": [
        {
          "internalType": "address",
          "name": "spender",
          "type": "address"
        },
        {
          "internalType": "uint256",
          "name": "subtractedValue",
          "type": "uint256"
        }
      ],
      "name": "decreaseAllowance",
      "outputs": [
        {
          "internalType": "bool",
          "name": "",
          "type": "bool"
        }
      ],
      "payable": false,
      "stateMutability": "nonpayable",
      "type": "function"
    },
    {
      "constant": false,
      "inputs": [
        {
          "internalType": "address",
          "name": "delegatee",
          "type": "address"
        }
      ],
      "name": "delegate",
      "outputs": [],
      "payable": false,
      "stateMutability": "nonpayable",
      "type": "function"
    },
    {
      "constant": false,
      "inputs": [
        {
          "internalType": "address",
          "name": "delegatee",
          "type": "address"
        },
        {
          "internalType": "uint256",
          "name": "nonce",
          "type": "uint256"
        },
        {
          "internalType": "uint256",
          "name": "expiry",
          "type": "uint256"
        },
        {
          "internalType": "uint8",
          "name": "v",
          "type": "uint8"
        },
        {
          "internalType": "bytes32",
          "name": "r",
          "type": "bytes32"
        },
        {
          "internalType": "bytes32",
          "name": "s",
          "type": "bytes32"
        }
      ],
      "name": "delegateBySig",
      "outputs": [],
      "payable": false,
      "stateMutability": "nonpayable",
      "type": "function"
    },
    {
      "constant": true,
      "inputs": [
        {
          "internalType": "address",
          "name": "delegator",
          "type": "address"
        }
      ],
      "name": "delegates",
      "outputs": [
        {
          "internalType": "address",
          "name": "",
          "type": "address"
        }
      ],
      "payable": false,
      "stateMutability": "view",
      "type": "function"
    },
    {
      "constant": true,
      "inputs": [
        {
          "internalType": "address",
          "name": "account",
          "type": "address"
        }
      ],
      "name": "getCurrentVotes",
      "outputs": [
        {
          "internalType": "uint256",
          "name": "",
          "type": "uint256"
        }
      ],
      "payable": false,
      "stateMutability": "view",
      "type": "function"
    },
    {
      "constant": true,
      "inputs": [
        {
          "internalType": "address",
          "name": "account",
          "type": "address"
        },
        {
          "internalType": "uint256",
          "name": "blockNumber",
          "type": "uint256"
        }
      ],
      "name": "getPriorVotes",
      "outputs": [
        {
          "internalType": "uint256",
          "name": "",
          "type": "uint256"
        }
      ],
      "payable": false,
      "stateMutability": "view",
      "type": "function"
    },
    {
      "constant": true,
      "inputs": [],
      "name": "gov",
      "outputs": [
        {
          "internalType": "address",
          "name": "",
          "type": "address"
        }
      ],
      "payable": false,
      "stateMutability": "view",
      "type": "function"
    },
    {
      "constant": true,
      "inputs": [],
      "name": "incentivizer",
      "outputs": [
        {
          "internalType": "address",
          "name": "",
          "type": "address"
        }
      ],
      "payable": false,
      "stateMutability": "view",
      "type": "function"
    },
    {
      "constant": false,
      "inputs": [
        {
          "internalType": "address",
          "name": "spender",
          "type": "address"
        },
        {
          "internalType": "uint256",
          "name": "addedValue",
          "type": "uint256"
        }
      ],
      "name": "increaseAllowance",
      "outputs": [
        {
          "internalType": "bool",
          "name": "",
          "type": "bool"
        }
      ],
      "payable": false,
      "stateMutability": "nonpayable",
      "type": "function"
    },
    {
      "constant": true,
      "inputs": [],
      "name": "initSupply",
      "outputs": [
        {
          "internalType": "uint256",
          "name": "",
          "type": "uint256"
        }
      ],
      "payable": false,
      "stateMutability": "view",
      "type": "function"
    },
    {
      "constant": true,
      "inputs": [],
      "name": "internalDecimals",
      "outputs": [
        {
          "internalType": "uint256",
          "name": "",
          "type": "uint256"
        }
      ],
      "payable": false,
      "stateMutability": "view",
      "type": "function"
    },
    {
      "constant": true,
      "inputs": [],
      "name": "maxScalingFactor",
      "outputs": [
        {
          "internalType": "uint256",
          "name": "",
          "type": "uint256"
        }
      ],
      "payable": false,
      "stateMutability": "view",
      "type": "function"
    },
    {
      "constant": false,
      "inputs": [
        {
          "internalType": "address",
          "name": "to",
          "type": "address"
        },
        {
          "internalType": "uint256",
          "name": "amount",
          "type": "uint256"
        }
      ],
      "name": "mint",
      "outputs": [
        {
          "internalType": "bool",
          "name": "",
          "type": "bool"
        }
      ],
      "payable": false,
      "stateMutability": "nonpayable",
      "type": "function"
    },
    {
      "constant": true,
      "inputs": [],
      "name": "name",
      "outputs": [
        {
          "internalType": "string",
          "name": "",
          "type": "string"
        }
      ],
      "payable": false,
      "stateMutability": "view",
      "type": "function"
    },
    {
      "constant": true,
      "inputs": [
        {
          "internalType": "address",
          "name": "",
          "type": "address"
        }
      ],
      "name": "nonces",
      "outputs": [
        {
          "internalType": "uint256",
          "name": "",
          "type": "uint256"
        }
      ],
      "payable": false,
      "stateMutability": "view",
      "type": "function"
    },
    {
      "constant": true,
      "inputs": [
        {
          "internalType": "address",
          "name": "",
          "type": "address"
        }
      ],
      "name": "numCheckpoints",
      "outputs": [
        {
          "internalType": "uint32",
          "name": "",
          "type": "uint32"
        }
      ],
      "payable": false,
      "stateMutability": "view",
      "type": "function"
    },
    {
      "constant": true,
      "inputs": [],
      "name": "pendingGov",
      "outputs": [
        {
          "internalType": "address",
          "name": "",
          "type": "address"
        }
      ],
      "payable": false,
      "stateMutability": "view",
      "type": "function"
    },
    {
      "constant": false,
      "inputs": [
        {
          "internalType": "uint256",
          "name": "epoch",
          "type": "uint256"
        },
        {
          "internalType": "uint256",
          "name": "indexDelta",
          "type": "uint256"
        },
        {
          "internalType": "bool",
          "name": "positive",
          "type": "bool"
        }
      ],
      "name": "rebase",
      "outputs": [
        {
          "internalType": "uint256",
          "name": "",
          "type": "uint256"
        }
      ],
      "payable": false,
      "stateMutability": "nonpayable",
      "type": "function"
    },
    {
      "constant": true,
      "inputs": [],
      "name": "rebaser",
      "outputs": [
        {
          "internalType": "address",
          "name": "",
          "type": "address"
        }
      ],
      "payable": false,
      "stateMutability": "view",
      "type": "function"
    },
    {
      "constant": true,
      "inputs": [],
      "name": "symbol",
      "outputs": [
        {
          "internalType": "string",
          "name": "",
          "type": "string"
        }
      ],
      "payable": false,
      "stateMutability": "view",
      "type": "function"
    },
    {
      "constant": true,
      "inputs": [],
      "name": "teasScalingFactor",
      "outputs": [
        {
          "internalType": "uint256",
          "name": "",
          "type": "uint256"
        }
      ],
      "payable": false,
      "stateMutability": "view",
      "type": "function"
    },
    {
      "constant": true,
      "inputs": [],
      "name": "totalSupply",
      "outputs": [
        {
          "internalType": "uint256",
          "name": "",
          "type": "uint256"
        }
      ],
      "payable": false,
      "stateMutability": "view",
      "type": "function"
    },
    {
      "constant": false,
      "inputs": [
        {
          "internalType": "address",
          "name": "to",
          "type": "address"
        },
        {
          "internalType": "uint256",
          "name": "value",
          "type": "uint256"
        }
      ],
      "name": "transfer",
      "outputs": [
        {
          "internalType": "bool",
          "name": "",
          "type": "bool"
        }
      ],
      "payable": false,
      "stateMutability": "nonpayable",
      "type": "function"
    },
    {
      "constant": false,
      "inputs": [
        {
          "internalType": "address",
          "name": "from",
          "type": "address"
        },
        {
          "internalType": "address",
          "name": "to",
          "type": "address"
        },
        {
          "internalType": "uint256",
          "name": "value",
          "type": "uint256"
        }
      ],
      "name": "transferFrom",
      "outputs": [
        {
          "internalType": "bool",
          "name": "",
          "type": "bool"
        }
      ],
      "payable": false,
      "stateMutability": "nonpayable",
      "type": "function"
    },
    {
      "constant": false,
      "inputs": [
        {
          "internalType": "string",
          "name": "name_",
          "type": "string"
        },
        {
          "internalType": "string",
          "name": "symbol_",
          "type": "string"
        },
        {
          "internalType": "uint8",
          "name": "decimals_",
          "type": "uint8"
        }
      ],
      "name": "initialize",
      "outputs": [],
      "payable": false,
      "stateMutability": "nonpayable",
      "type": "function"
    },
    {
      "constant": false,
      "inputs": [
        {
          "internalType": "string",
          "name": "name_",
          "type": "string"
        },
        {
          "internalType": "string",
          "name": "symbol_",
          "type": "string"
        },
        {
          "internalType": "uint8",
          "name": "decimals_",
          "type": "uint8"
        },
        {
          "internalType": "address",
          "name": "initial_owner",
          "type": "address"
        },
        {
          "internalType": "uint256",
          "name": "initSupply_",
          "type": "uint256"
        }
      ],
      "name": "initialize",
      "outputs": [],
      "payable": false,
      "stateMutability": "nonpayable",
      "type": "function"
    }
  ],
  "bytecode": "0x608060405234801561001057600080fd5b50612ebc806100206000396000f3fe608060405234801561001057600080fd5b50600436106102ad5760003560e01c80636fc6407c1161017b578063a457c2d7116100d8578063e65108611161008c578063ec342ad011610071578063ec342ad014610ac0578063f1127ed814610ac8578063fa8f345514610b27576102ad565b8063e651086114610ab0578063e7a324dc14610ab8576102ad565b8063b4b5ea57116100bd578063b4b5ea57146109ee578063c3cda52014610a21578063dd62ed3e14610a75576102ad565b8063a457c2d71461097c578063a9059cbb146109b5576102ad565b80637af548c11161012f57806395d89b411161011457806395d89b411461093957806397d63f931461094157806398dca21014610949576102ad565b80637af548c1146108db5780637ecebe0014610906576102ad565b806370a082311161016057806370a082311461083c57806373f03dff1461086f578063782d6fe1146108a2576102ad565b80636fc6407c146107e85780636fcfff45146107f0576102ad565b806325240810116102295780634bda2e20116101dd5780635c19a95c116101c25780635c19a95c1461065c57806364dd48f51461068f5780636c94522114610697576102ad565b80634bda2e2014610621578063587cde1e14610629576102ad565b8063395093511161020e578063395093511461057c5780633af9e669146105b557806340c10f19146105e8576102ad565b80632524081014610556578063313ce5671461055e576102ad565b806312d43a511161028057806318160ddd1161026557806318160ddd1461050357806320606b701461050b57806323b872dd14610513576102ad565b806312d43a51146103c75780631624f6c6146103cf576102ad565b806306fdde03146102b2578063095ea7b31461032f57806311d3e6c41461037c57806311fd8a8314610396575b600080fd5b6102ba610b5a565b6040805160208082528351818301528351919283929083019185019080838360005b838110156102f45781810151838201526020016102dc565b50505050905090810190601f1680156103215780820380516001836020036101000a031916815260200191505b509250505060405180910390f35b6103686004803603604081101561034557600080fd5b5073ffffffffffffffffffffffffffffffffffffffff8135169060200135610c05565b604080519115158252519081900360200190f35b610384610c79565b60408051918252519081900360200190f35b61039e610c89565b6040805173ffffffffffffffffffffffffffffffffffffffff9092168252519081900360200190f35b61039e610ca5565b610501600480360360608110156103e557600080fd5b81019060208101813564010000000081111561040057600080fd5b82018360208201111561041257600080fd5b8035906020019184600183028401116401000000008311171561043457600080fd5b91908080601f016020809104026020016040519081016040528093929190818152602001838380828437600092019190915250929594936020810193503591505064010000000081111561048757600080fd5b82018360208201111561049957600080fd5b803590602001918460018302840111640100000000831117156104bb57600080fd5b91908080601f0160208091040260200160405190810160405280939291908181526020018383808284376000920191909152509295505050903560ff169150610cc69050565b005b610384610d93565b610384610d99565b6103686004803603606081101561052957600080fd5b5073ffffffffffffffffffffffffffffffffffffffff813581169160208101359091169060400135610db4565b61039e610fc6565b610566610fe2565b6040805160ff9092168252519081900360200190f35b6103686004803603604081101561059257600080fd5b5073ffffffffffffffffffffffffffffffffffffffff8135169060200135610feb565b610384600480360360208110156105cb57600080fd5b503573ffffffffffffffffffffffffffffffffffffffff1661109e565b610368600480360360408110156105fe57600080fd5b5073ffffffffffffffffffffffffffffffffffffffff81351690602001356110c6565b6105016111ab565b61039e6004803603602081101561063f57600080fd5b503573ffffffffffffffffffffffffffffffffffffffff166112ee565b6105016004803603602081101561067257600080fd5b503573ffffffffffffffffffffffffffffffffffffffff16611319565b610384611326565b610501600480360360a08110156106ad57600080fd5b8101906020810181356401000000008111156106c857600080fd5b8201836020820111156106da57600080fd5b803590602001918460018302840111640100000000831117156106fc57600080fd5b91908080601f016020809104026020016040519081016040528093929190818152602001838380828437600092019190915250929594936020810193503591505064010000000081111561074f57600080fd5b82018360208201111561076157600080fd5b8035906020019184600183028401116401000000008311171561078357600080fd5b91908080601f0160208091040260200160405190810160405280939291908181526020018383808284376000920191909152509295505050813560ff16925050602081013573ffffffffffffffffffffffffffffffffffffffff169060400135611334565b61039e61142f565b6108236004803603602081101561080657600080fd5b503573ffffffffffffffffffffffffffffffffffffffff1661144b565b6040805163ffffffff9092168252519081900360200190f35b6103846004803603602081101561085257600080fd5b503573ffffffffffffffffffffffffffffffffffffffff16611463565b6105016004803603602081101561088557600080fd5b503573ffffffffffffffffffffffffffffffffffffffff166114ae565b610384600480360360408110156108b857600080fd5b5073ffffffffffffffffffffffffffffffffffffffff813516906020013561155f565b610384600480360360608110156108f157600080fd5b50803590602081013590604001351515611829565b6103846004803603602081101561091c57600080fd5b503573ffffffffffffffffffffffffffffffffffffffff1661199f565b6102ba6119b1565b610384611a27565b6105016004803603602081101561095f57600080fd5b503573ffffffffffffffffffffffffffffffffffffffff16611a2d565b6103686004803603604081101561099257600080fd5b5073ffffffffffffffffffffffffffffffffffffffff8135169060200135611ade565b610368600480360360408110156109cb57600080fd5b5073ffffffffffffffffffffffffffffffffffffffff8135169060200135611c01565b61038460048036036020811015610a0457600080fd5b503573ffffffffffffffffffffffffffffffffffffffff16611d78565b610501600480360360c0811015610a3757600080fd5b5073ffffffffffffffffffffffffffffffffffffffff8135169060208101359060408101359060ff6060820135169060808101359060a00135611e13565b61038460048036036040811015610a8b57600080fd5b5073ffffffffffffffffffffffffffffffffffffffff813581169160200135166121ca565b610384612202565b610384612208565b610384612223565b610b0760048036036040811015610ade57600080fd5b50803573ffffffffffffffffffffffffffffffffffffffff16906020013563ffffffff1661222f565b6040805163ffffffff909316835260208301919091528051918290030190f35b61050160048036036020811015610b3d57600080fd5b503573ffffffffffffffffffffffffffffffffffffffff1661225c565b60018054604080516020600284861615610100027fffffffffffffffffffffffffffffffffffffffffffffffffffffffffffffffff0190941693909304601f81018490048402820184019092528181529291830182828015610bfd5780601f10610bd257610100808354040283529160200191610bfd565b820191906000526020600020905b815481529060010190602001808311610be057829003601f168201915b505050505081565b336000818152600a6020908152604080832073ffffffffffffffffffffffffffffffffffffffff8716808552908352818420869055815186815291519394909390927f8c5be1e5ebec7d5bd14f71427d1e84f3dd0314c0f7b2291e5b200ac8c7c3b925928290030190a35060015b92915050565b6000610c8361230d565b90505b90565b60055473ffffffffffffffffffffffffffffffffffffffff1681565b600354610100900473ffffffffffffffffffffffffffffffffffffffff1681565b60085415610d3557604080517f08c379a000000000000000000000000000000000000000000000000000000000815260206004820152601360248201527f616c726561647920696e697469616c697a656400000000000000000000000000604482015290519081900360640190fd5b8251610d48906001906020860190612c76565b508151610d5c906002906020850190612c76565b50600380547fffffffffffffffffffffffffffffffffffffffffffffffffffffffffffffff001660ff929092169190911790555050565b60075481565b604051806043612d9f82396043019050604051809103902081565b60008273ffffffffffffffffffffffffffffffffffffffff8116610dd757600080fd5b73ffffffffffffffffffffffffffffffffffffffff8116301415610dfa57600080fd5b73ffffffffffffffffffffffffffffffffffffffff85166000908152600a60209081526040808320338452909152902054610e3b908463ffffffff61234016565b73ffffffffffffffffffffffffffffffffffffffff86166000908152600a60209081526040808320338452909152812091909155600854610e9c90610e908669d3c21bcecceda100000063ffffffff61238216565b9063ffffffff6123f516565b73ffffffffffffffffffffffffffffffffffffffff8716600090815260096020526040902054909150610ed5908263ffffffff61234016565b73ffffffffffffffffffffffffffffffffffffffff8088166000908152600960205260408082209390935590871681522054610f17908263ffffffff61243716565b73ffffffffffffffffffffffffffffffffffffffff80871660008181526009602090815260409182902094909455805188815290519193928a16927fddf252ad1be2c89b69c2b068fc378daa952ba7f163c4a11628f55a4df523b3ef92918290030190a373ffffffffffffffffffffffffffffffffffffffff8087166000908152600c6020526040808220548884168352912054610fba929182169116836124ab565b50600195945050505050565b60045473ffffffffffffffffffffffffffffffffffffffff1681565b60035460ff1681565b336000908152600a6020908152604080832073ffffffffffffffffffffffffffffffffffffffff8616845290915281205461102c908363ffffffff61243716565b336000818152600a6020908152604080832073ffffffffffffffffffffffffffffffffffffffff89168085529083529281902085905580519485525191937f8c5be1e5ebec7d5bd14f71427d1e84f3dd0314c0f7b2291e5b200ac8c7c3b925929081900390910190a350600192915050565b73ffffffffffffffffffffffffffffffffffffffff1660009081526009602052604090205490565b60055460009073ffffffffffffffffffffffffffffffffffffffff16331480611106575060065473ffffffffffffffffffffffffffffffffffffffff1633145b8061112d5750600354610100900473ffffffffffffffffffffffffffffffffffffffff1633145b61119857604080517f08c379a000000000000000000000000000000000000000000000000000000000815260206004820152600a60248201527f6e6f74206d696e74657200000000000000000000000000000000000000000000604482015290519081900360640190fd5b6111a2838361269d565b50600192915050565b60045473ffffffffffffffffffffffffffffffffffffffff16331461123157604080517f08c379a000000000000000000000000000000000000000000000000000000000815260206004820152600860248201527f2170656e64696e67000000000000000000000000000000000000000000000000604482015290519081900360640190fd5b600380546004805473ffffffffffffffffffffffffffffffffffffffff8181166101009081027fffffffffffffffffffffff0000000000000000000000000000000000000000ff861617958690557fffffffffffffffffffffffff000000000000000000000000000000000000000090921690925560408051938290048316808552919094049091166020830152825190927f1f14cfc03e486d23acee577b07bc0b3b23f4888c91fcdba5e0fef5a2549d5523928290030190a150565b73ffffffffffffffffffffffffffffffffffffffff9081166000908152600c60205260409020541690565b6113233382612835565b50565b69d3c21bcecceda100000081565b600081116113a357604080517f08c379a000000000000000000000000000000000000000000000000000000000815260206004820152600d60248201527f3020696e697420737570706c7900000000000000000000000000000000000000604482015290519081900360640190fd5b6113ae858585610cc6565b6113d5670de0b6b3a764000069d3c21bcecceda10000005b8391900463ffffffff61238216565b600b556007819055670de0b6b3a764000060088190556113ff9069d3c21bcecceda10000006113c6565b73ffffffffffffffffffffffffffffffffffffffff90921660009081526009602052604090209190915550505050565b60065473ffffffffffffffffffffffffffffffffffffffff1681565b600e6020526000908152604090205463ffffffff1681565b60085473ffffffffffffffffffffffffffffffffffffffff82166000908152600960205260408120549091610c739169d3c21bcecceda100000091610e90919063ffffffff61238216565b600354610100900473ffffffffffffffffffffffffffffffffffffffff1633146114d757600080fd5b6004805473ffffffffffffffffffffffffffffffffffffffff8381167fffffffffffffffffffffffff0000000000000000000000000000000000000000831681179093556040805191909216808252602082019390935281517f6163d5b9efd962645dd649e6e48a61bcb0f9df00997a2398b80d135a9ab0c61e929181900390910190a15050565b60004382106115b9576040517f08c379a0000000000000000000000000000000000000000000000000000000008152600401808060200182810382526026815260200180612e036026913960400191505060405180910390fd5b73ffffffffffffffffffffffffffffffffffffffff83166000908152600e602052604090205463ffffffff16806115f4576000915050610c73565b73ffffffffffffffffffffffffffffffffffffffff84166000908152600d6020908152604080832063ffffffff7fffffffffffffffffffffffffffffffffffffffffffffffffffffffffffffffff8601811685529252909120541683106116b95773ffffffffffffffffffffffffffffffffffffffff84166000908152600d602090815260408083207fffffffffffffffffffffffffffffffffffffffffffffffffffffffffffffffff9490940163ffffffff16835292905220600101549050610c73565b73ffffffffffffffffffffffffffffffffffffffff84166000908152600d6020908152604080832083805290915290205463ffffffff16831015611701576000915050610c73565b60007fffffffffffffffffffffffffffffffffffffffffffffffffffffffffffffffff82015b8163ffffffff168163ffffffff1611156117e557600282820363ffffffff16048103611751612cf4565b5073ffffffffffffffffffffffffffffffffffffffff87166000908152600d6020908152604080832063ffffffff8086168552908352928190208151808301909252805490931680825260019093015491810191909152908714156117c057602001519450610c739350505050565b805163ffffffff168711156117d7578193506117de565b6001820392505b5050611727565b5073ffffffffffffffffffffffffffffffffffffffff85166000908152600d6020908152604080832063ffffffff9094168352929052206001015491505092915050565b60055460009073ffffffffffffffffffffffffffffffffffffffff16331461185057600080fd5b826118a157600854604080518681526020810183905280820192909252517fc6642d24d84e7f3d36ca39f5cce10e75639d9b158d5193aa350e2f900653e4c09181900360600190a150600754611998565b600854826118df576118d7670de0b6b3a7640000610e906118c8828863ffffffff61234016565b6008549063ffffffff61238216565b600855611929565b6000611900670de0b6b3a7640000610e906118c8828963ffffffff61243716565b905061190a61230d565b81101561191b576008819055611927565b61192361230d565b6008555b505b61194c670de0b6b3a7640000610e90600854600b5461238290919063ffffffff16565b600755600854604080518781526020810184905280820192909252517fc6642d24d84e7f3d36ca39f5cce10e75639d9b158d5193aa350e2f900653e4c09181900360600190a150506007545b9392505050565b600f6020526000908152604090205481565b600280546040805160206001841615610100027fffffffffffffffffffffffffffffffffffffffffffffffffffffffffffffffff01909316849004601f81018490048402820184019092528181529291830182828015610bfd5780601f10610bd257610100808354040283529160200191610bfd565b600b5481565b600354610100900473ffffffffffffffffffffffffffffffffffffffff163314611a5657600080fd5b6006805473ffffffffffffffffffffffffffffffffffffffff8381167fffffffffffffffffffffffff0000000000000000000000000000000000000000831681179093556040805191909216808252602082019390935281517f2ee668ca7d17a9122dc00c0bfd73b684f2f7d681f17733cc02b294f69f1b3896929181900390910190a15050565b336000908152600a6020908152604080832073ffffffffffffffffffffffffffffffffffffffff86168452909152812054808310611b4c57336000908152600a6020908152604080832073ffffffffffffffffffffffffffffffffffffffff88168452909152812055611b8e565b611b5c818463ffffffff61234016565b336000908152600a6020908152604080832073ffffffffffffffffffffffffffffffffffffffff891684529091529020555b336000818152600a6020908152604080832073ffffffffffffffffffffffffffffffffffffffff89168085529083529281902054815190815290519293927f8c5be1e5ebec7d5bd14f71427d1e84f3dd0314c0f7b2291e5b200ac8c7c3b925929181900390910190a35060019392505050565b60008273ffffffffffffffffffffffffffffffffffffffff8116611c2457600080fd5b73ffffffffffffffffffffffffffffffffffffffff8116301415611c4757600080fd5b600854600090611c6b90610e908669d3c21bcecceda100000063ffffffff61238216565b33600090815260096020526040902054909150611c8e908263ffffffff61234016565b336000908152600960205260408082209290925573ffffffffffffffffffffffffffffffffffffffff871681522054611ccd908263ffffffff61243716565b73ffffffffffffffffffffffffffffffffffffffff86166000818152600960209081526040918290209390935580518781529051919233927fddf252ad1be2c89b69c2b068fc378daa952ba7f163c4a11628f55a4df523b3ef9281900390910190a3336000908152600c60205260408082205473ffffffffffffffffffffffffffffffffffffffff88811684529190922054611d6d9282169116836124ab565b506001949350505050565b73ffffffffffffffffffffffffffffffffffffffff81166000908152600e602052604081205463ffffffff1680611db0576000611998565b73ffffffffffffffffffffffffffffffffffffffff83166000908152600d6020908152604080832063ffffffff7fffffffffffffffffffffffffffffffffffffffffffffffffffffffffffffffff86011684529091529020600101549392505050565b60006040518080612d9f604391396043019050604051809103902060016040518082805460018160011615610100020316600290048015611e8b5780601f10611e69576101008083540402835291820191611e8b565b820191906000526020600020905b815481529060010190602001808311611e77575b50509150506040518091039020611ea06128da565b30604051602001808581526020018481526020018381526020018273ffffffffffffffffffffffffffffffffffffffff1673ffffffffffffffffffffffffffffffffffffffff16815260200194505050505060405160208183030381529060405280519060200120905060006040518080612e29603a91396040805191829003603a01822060208084019190915273ffffffffffffffffffffffffffffffffffffffff8c1683830152606083018b905260808084018b90528251808503909101815260a0840183528051908201207f190100000000000000000000000000000000000000000000000000000000000060c085015260c2840187905260e2808501829052835180860390910181526101028501808552815191840191909120600091829052610122860180865281905260ff8c1661014287015261016286018b905261018286018a9052935191965092945091926001926101a280830193927fffffffffffffffffffffffffffffffffffffffffffffffffffffffffffffffe08301929081900390910190855afa15801561203e573d6000803e3d6000fd5b50506040517fffffffffffffffffffffffffffffffffffffffffffffffffffffffffffffffe0015191505073ffffffffffffffffffffffffffffffffffffffff81166120d5576040517f08c379a0000000000000000000000000000000000000000000000000000000008152600401808060200182810382526025815260200180612e636025913960400191505060405180910390fd5b73ffffffffffffffffffffffffffffffffffffffff81166000908152600f60205260409020805460018101909155891461215a576040517f08c379a0000000000000000000000000000000000000000000000000000000008152600401808060200182810382526021815260200180612d266021913960400191505060405180910390fd5b874211156121b3576040517f08c379a0000000000000000000000000000000000000000000000000000000008152600401808060200182810382526025815260200180612d476025913960400191505060405180910390fd5b6121bd818b612835565b505050505b505050505050565b73ffffffffffffffffffffffffffffffffffffffff9182166000908152600a6020908152604080832093909416825291909152205490565b60085481565b60405180603a612e298239603a019050604051809103902081565b670de0b6b3a764000081565b600d6020908152600092835260408084209091529082529020805460019091015463ffffffff9091169082565b600354610100900473ffffffffffffffffffffffffffffffffffffffff16331461228557600080fd5b6005805473ffffffffffffffffffffffffffffffffffffffff8381167fffffffffffffffffffffffff0000000000000000000000000000000000000000831681179093556040805191909216808252602082019390935281517f51f448520e2183de499e224808a409ee01a1f380edb2e8497572320c15030545929181900390910190a15050565b6000600b547fffffffffffffffffffffffffffffffffffffffffffffffffffffffffffffffff8161233a57fe5b04905090565b600061199883836040518060400160405280601e81526020017f536166654d6174683a207375627472616374696f6e206f766572666c6f7700008152506128de565b60008261239157506000610c73565b8282028284828161239e57fe5b0414611998576040517f08c379a0000000000000000000000000000000000000000000000000000000008152600401808060200182810382526021815260200180612de26021913960400191505060405180910390fd5b600061199883836040518060400160405280601a81526020017f536166654d6174683a206469766973696f6e206279207a65726f00000000000081525061298f565b60008282018381101561199857604080517f08c379a000000000000000000000000000000000000000000000000000000000815260206004820152601b60248201527f536166654d6174683a206164646974696f6e206f766572666c6f770000000000604482015290519081900360640190fd5b8173ffffffffffffffffffffffffffffffffffffffff168373ffffffffffffffffffffffffffffffffffffffff16141580156124e75750600081115b156126985773ffffffffffffffffffffffffffffffffffffffff8316156125c45773ffffffffffffffffffffffffffffffffffffffff83166000908152600e602052604081205463ffffffff16908161254157600061259e565b73ffffffffffffffffffffffffffffffffffffffff85166000908152600d6020908152604080832063ffffffff7fffffffffffffffffffffffffffffffffffffffffffffffffffffffffffffffff87011684529091529020600101545b905060006125b2828563ffffffff61234016565b90506125c086848484612a0e565b5050505b73ffffffffffffffffffffffffffffffffffffffff8216156126985773ffffffffffffffffffffffffffffffffffffffff82166000908152600e602052604081205463ffffffff169081612619576000612676565b73ffffffffffffffffffffffffffffffffffffffff84166000908152600d6020908152604080832063ffffffff7fffffffffffffffffffffffffffffffffffffffffffffffffffffffffffffffff87011684529091529020600101545b9050600061268a828563ffffffff61243716565b90506121c285848484612a0e565b505050565b6007546126b0908263ffffffff61243716565b6007556008546000906126d790610e908469d3c21bcecceda100000063ffffffff61238216565b600b549091506126ed908263ffffffff61243716565b600b556126f861230d565b600854111561276857604080517f08c379a000000000000000000000000000000000000000000000000000000000815260206004820152601a60248201527f6d6178207363616c696e6720666163746f7220746f6f206c6f77000000000000604482015290519081900360640190fd5b73ffffffffffffffffffffffffffffffffffffffff831660009081526009602052604090205461279e908263ffffffff61243716565b73ffffffffffffffffffffffffffffffffffffffff808516600090815260096020908152604080832094909455600c9052918220546127df929116836124ab565b6040805173ffffffffffffffffffffffffffffffffffffffff851681526020810184905281517f0f6798a560793a54c3bcfe86a93cde1e73087d944c0ea20544137d4121396885929181900390910190a1505050565b73ffffffffffffffffffffffffffffffffffffffff8083166000818152600c6020818152604080842080546009845282862054949093528787167fffffffffffffffffffffffff00000000000000000000000000000000000000008416811790915590519190951694919391928592917f3134e8a2e6d97e929a7e54011ea5485d7d196dd5f0ba4d4ef95803e8e3fc257f9190a46128d48284836124ab565b50505050565b4690565b60008184841115612987576040517f08c379a00000000000000000000000000000000000000000000000000000000081526004018080602001828103825283818151815260200191508051906020019080838360005b8381101561294c578181015183820152602001612934565b50505050905090810190601f1680156129795780820380516001836020036101000a031916815260200191505b509250505060405180910390fd5b505050900390565b600081836129f8576040517f08c379a000000000000000000000000000000000000000000000000000000000815260206004820181815283516024840152835190928392604490910191908501908083836000831561294c578181015183820152602001612934565b506000838581612a0457fe5b0495945050505050565b6000612a3243604051806060016040528060338152602001612d6c60339139612bfe565b905060008463ffffffff16118015612aa6575073ffffffffffffffffffffffffffffffffffffffff85166000908152600d6020908152604080832063ffffffff7fffffffffffffffffffffffffffffffffffffffffffffffffffffffffffffffff8901811685529252909120548282169116145b15612b0e5773ffffffffffffffffffffffffffffffffffffffff85166000908152600d6020908152604080832063ffffffff7fffffffffffffffffffffffffffffffffffffffffffffffffffffffffffffffff89011684529091529020600101829055612ba7565b60408051808201825263ffffffff8084168252602080830186815273ffffffffffffffffffffffffffffffffffffffff8a166000818152600d84528681208b861682528452868120955186549086167fffffffffffffffffffffffffffffffffffffffffffffffffffffffff000000009182161787559251600196870155908152600e9092529390208054928801909116919092161790555b6040805184815260208101849052815173ffffffffffffffffffffffffffffffffffffffff8816927fdec2bacdd2f05b59de34da9b523dff8be42e5e38e818c82fdb0bae774387a724928290030190a25050505050565b6000816401000000008410612c6e576040517f08c379a000000000000000000000000000000000000000000000000000000000815260206004820181815283516024840152835190928392604490910191908501908083836000831561294c578181015183820152602001612934565b509192915050565b828054600181600116156101000203166002900490600052602060002090601f016020900481019282601f10612cb757805160ff1916838001178555612ce4565b82800160010185558215612ce4579182015b82811115612ce4578251825591602001919060010190612cc9565b50612cf0929150612d0b565b5090565b604080518082019091526000808252602082015290565b610c8691905b80821115612cf05760008155600101612d1156fe5445413a3a64656c656761746542795369673a20696e76616c6964206e6f6e63655445413a3a64656c656761746542795369673a207369676e617475726520657870697265645445413a3a5f7772697465436865636b706f696e743a20626c6f636b206e756d62657220657863656564732033322062697473454950373132446f6d61696e28737472696e67206e616d652c75696e7432353620636861696e49642c6164647265737320766572696679696e67436f6e747261637429536166654d6174683a206d756c7469706c69636174696f6e206f766572666c6f775445413a3a6765745072696f72566f7465733a206e6f74207965742064657465726d696e656444656c65676174696f6e28616464726573732064656c6567617465652c75696e74323536206e6f6e63652c75696e7432353620657870697279295445413a3a64656c656761746542795369673a20696e76616c6964207369676e6174757265a265627a7a723158202d8cecf1655b5c886a1df4ff0b276727686008afbd977c1f41e6a175bf883d9164736f6c63430005110032",
  "source": "pragma solidity 0.5.17;\n\n/* import \"./TEATokenInterface.sol\"; */\nimport \"./TEAGovernance.sol\";\n\ncontract TEAToken is TEAGovernanceToken {\n    // Modifiers\n    modifier onlyGov() {\n        require(msg.sender == gov);\n        _;\n    }\n\n    modifier onlyRebaser() {\n        require(msg.sender == rebaser);\n        _;\n    }\n\n    modifier onlyMinter() {\n        require(msg.sender == rebaser || msg.sender == incentivizer || msg.sender == gov, \"not minter\");\n        _;\n    }\n\n    modifier validRecipient(address to) {\n        require(to != address(0x0));\n        require(to != address(this));\n        _;\n    }\n\n    function initialize(\n        string memory name_,\n        string memory symbol_,\n        uint8 decimals_\n    )\n        public\n    {\n        require(teasScalingFactor == 0, \"already initialized\");\n        name = name_;\n        symbol = symbol_;\n        decimals = decimals_;\n    }\n\n\n    /**\n    * @notice Computes the current max scaling factor\n    */\n    function maxScalingFactor()\n        external\n        view\n        returns (uint256)\n    {\n        return _maxScalingFactor();\n    }\n\n    function _maxScalingFactor()\n        internal\n        view\n        returns (uint256)\n    {\n        // scaling factor can only go up to 2**256-1 = initSupply * teasScalingFactor\n        // this is used to check if teasScalingFactor will be too high to compute balances when rebasing.\n        return uint256(-1) / initSupply;\n    }\n\n    /**\n    * @notice Mints new tokens, increasing totalSupply, initSupply, and a users balance.\n    * @dev Limited to onlyMinter modifier\n    */\n    function mint(address to, uint256 amount)\n        external\n        onlyMinter\n        returns (bool)\n    {\n        _mint(to, amount);\n        return true;\n    }\n\n    function _mint(address to, uint256 amount)\n        internal\n    {\n      // increase totalSupply\n      totalSupply = totalSupply.add(amount);\n\n      // get underlying value\n      uint256 teaValue = amount.mul(internalDecimals).div(teasScalingFactor);\n\n      // increase initSupply\n      initSupply = initSupply.add(teaValue);\n\n      // make sure the mint didnt push maxScalingFactor too low\n      require(teasScalingFactor <= _maxScalingFactor(), \"max scaling factor too low\");\n\n      // add balance\n      _teaBalances[to] = _teaBalances[to].add(teaValue);\n\n      // add delegates to the minter\n      _moveDelegates(address(0), _delegates[to], teaValue);\n      emit Mint(to, amount);\n    }\n\n    /* - ERC20 functionality - */\n\n    /**\n    * @dev Transfer tokens to a specified address.\n    * @param to The address to transfer to.\n    * @param value The amount to be transferred.\n    * @return True on success, false otherwise.\n    */\n    function transfer(address to, uint256 value)\n        external\n        validRecipient(to)\n        returns (bool)\n    {\n        // underlying balance is stored in teas, so divide by current scaling factor\n\n        // note, this means as scaling factor grows, dust will be untransferrable.\n        // minimum transfer value == teasScalingFactor / 1e24;\n\n        // get amount in underlying\n        uint256 teaValue = value.mul(internalDecimals).div(teasScalingFactor);\n\n        // sub from balance of sender\n        _teaBalances[msg.sender] = _teaBalances[msg.sender].sub(teaValue);\n\n        // add to balance of receiver\n        _teaBalances[to] = _teaBalances[to].add(teaValue);\n        emit Transfer(msg.sender, to, value);\n\n        _moveDelegates(_delegates[msg.sender], _delegates[to], teaValue);\n        return true;\n    }\n\n    /**\n    * @dev Transfer tokens from one address to another.\n    * @param from The address you want to send tokens from.\n    * @param to The address you want to transfer to.\n    * @param value The amount of tokens to be transferred.\n    */\n    function transferFrom(address from, address to, uint256 value)\n        external\n        validRecipient(to)\n        returns (bool)\n    {\n        // decrease allowance\n        _allowedFragments[from][msg.sender] = _allowedFragments[from][msg.sender].sub(value);\n\n        // get value in teas\n        uint256 teaValue = value.mul(internalDecimals).div(teasScalingFactor);\n\n        // sub from from\n        _teaBalances[from] = _teaBalances[from].sub(teaValue);\n        _teaBalances[to] = _teaBalances[to].add(teaValue);\n        emit Transfer(from, to, value);\n\n        _moveDelegates(_delegates[from], _delegates[to], teaValue);\n        return true;\n    }\n\n    /**\n    * @param who The address to query.\n    * @return The balance of the specified address.\n    */\n    function balanceOf(address who)\n      external\n      view\n      returns (uint256)\n    {\n      return _teaBalances[who].mul(teasScalingFactor).div(internalDecimals);\n    }\n\n    /** @notice Currently returns the internal storage amount\n    * @param who The address to query.\n    * @return The underlying balance of the specified address.\n    */\n    function balanceOfUnderlying(address who)\n      external\n      view\n      returns (uint256)\n    {\n      return _teaBalances[who];\n    }\n\n    /**\n     * @dev Function to check the amount of tokens that an owner has allowed to a spender.\n     * @param owner_ The address which owns the funds.\n     * @param spender The address which will spend the funds.\n     * @return The number of tokens still available for the spender.\n     */\n    function allowance(address owner_, address spender)\n        external\n        view\n        returns (uint256)\n    {\n        return _allowedFragments[owner_][spender];\n    }\n\n    /**\n     * @dev Approve the passed address to spend the specified amount of tokens on behalf of\n     * msg.sender. This method is included for ERC20 compatibility.\n     * increaseAllowance and decreaseAllowance should be used instead.\n     * Changing an allowance with this method brings the risk that someone may transfer both\n     * the old and the new allowance - if they are both greater than zero - if a transfer\n     * transaction is mined before the later approve() call is mined.\n     *\n     * @param spender The address which will spend the funds.\n     * @param value The amount of tokens to be spent.\n     */\n    function approve(address spender, uint256 value)\n        external\n        returns (bool)\n    {\n        _allowedFragments[msg.sender][spender] = value;\n        emit Approval(msg.sender, spender, value);\n        return true;\n    }\n\n    /**\n     * @dev Increase the amount of tokens that an owner has allowed to a spender.\n     * This method should be used instead of approve() to avoid the double approval vulnerability\n     * described above.\n     * @param spender The address which will spend the funds.\n     * @param addedValue The amount of tokens to increase the allowance by.\n     */\n    function increaseAllowance(address spender, uint256 addedValue)\n        external\n        returns (bool)\n    {\n        _allowedFragments[msg.sender][spender] =\n            _allowedFragments[msg.sender][spender].add(addedValue);\n        emit Approval(msg.sender, spender, _allowedFragments[msg.sender][spender]);\n        return true;\n    }\n\n    /**\n     * @dev Decrease the amount of tokens that an owner has allowed to a spender.\n     *\n     * @param spender The address which will spend the funds.\n     * @param subtractedValue The amount of tokens to decrease the allowance by.\n     */\n    function decreaseAllowance(address spender, uint256 subtractedValue)\n        external\n        returns (bool)\n    {\n        uint256 oldValue = _allowedFragments[msg.sender][spender];\n        if (subtractedValue >= oldValue) {\n            _allowedFragments[msg.sender][spender] = 0;\n        } else {\n            _allowedFragments[msg.sender][spender] = oldValue.sub(subtractedValue);\n        }\n        emit Approval(msg.sender, spender, _allowedFragments[msg.sender][spender]);\n        return true;\n    }\n\n    /* - Governance Functions - */\n\n    /** @notice sets the rebaser\n     * @param rebaser_ The address of the rebaser contract to use for authentication.\n     */\n    function _setRebaser(address rebaser_)\n        external\n        onlyGov\n    {\n        address oldRebaser = rebaser;\n        rebaser = rebaser_;\n        emit NewRebaser(oldRebaser, rebaser_);\n    }\n\n    /** @notice sets the incentivizer\n     * @param incentivizer_ The address of the rebaser contract to use for authentication.\n     */\n    function _setIncentivizer(address incentivizer_)\n        external\n        onlyGov\n    {\n        address oldIncentivizer = incentivizer;\n        incentivizer = incentivizer_;\n        emit NewIncentivizer(oldIncentivizer, incentivizer_);\n    }\n\n    /** @notice sets the pendingGov\n     * @param pendingGov_ The address of the rebaser contract to use for authentication.\n     */\n    function _setPendingGov(address pendingGov_)\n        external\n        onlyGov\n    {\n        address oldPendingGov = pendingGov;\n        pendingGov = pendingGov_;\n        emit NewPendingGov(oldPendingGov, pendingGov_);\n    }\n\n    /** @notice lets msg.sender accept governance\n     *\n     */\n    function _acceptGov()\n        external\n    {\n        require(msg.sender == pendingGov, \"!pending\");\n        address oldGov = gov;\n        gov = pendingGov;\n        pendingGov = address(0);\n        emit NewGov(oldGov, gov);\n    }\n\n    /* - Extras - */\n\n    /**\n    * @notice Initiates a new rebase operation, provided the minimum time period has elapsed.\n    *\n    * @dev The supply adjustment equals (totalSupply * DeviationFromTargetRate) / rebaseLag\n    *      Where DeviationFromTargetRate is (MarketOracleRate - targetRate) / targetRate\n    *      and targetRate is CpiOracleRate / baseCpi\n    */\n    function rebase(\n        uint256 epoch,\n        uint256 indexDelta,\n        bool positive\n    )\n        external\n        onlyRebaser\n        returns (uint256)\n    {\n        if (indexDelta == 0) {\n          emit Rebase(epoch, teasScalingFactor, teasScalingFactor);\n          return totalSupply;\n        }\n\n        uint256 prevTeasScalingFactor = teasScalingFactor;\n\n        if (!positive) {\n           teasScalingFactor = teasScalingFactor.mul(BASE.sub(indexDelta)).div(BASE);\n        } else {\n            uint256 newScalingFactor = teasScalingFactor.mul(BASE.add(indexDelta)).div(BASE);\n            if (newScalingFactor < _maxScalingFactor()) {\n                teasScalingFactor = newScalingFactor;\n            } else {\n              teasScalingFactor = _maxScalingFactor();\n            }\n        }\n\n        totalSupply = initSupply.mul(teasScalingFactor).div(BASE);\n        emit Rebase(epoch, prevTeasScalingFactor, teasScalingFactor);\n        return totalSupply;\n    }\n}\n\ncontract TEA is TEAToken {\n    /**\n     * @notice Initialize the new money market\n     * @param name_ ERC-20 name of this token\n     * @param symbol_ ERC-20 symbol of this token\n     * @param decimals_ ERC-20 decimal precision of this token\n     */\n    function initialize(\n        string memory name_,\n        string memory symbol_,\n        uint8 decimals_,\n        address initial_owner,\n        uint256 initSupply_\n    )\n        public\n    {\n        require(initSupply_ > 0, \"0 init supply\");\n\n        super.initialize(name_, symbol_, decimals_);\n\n        initSupply = initSupply_.mul(10**24/ (BASE));\n        totalSupply = initSupply_;\n        teasScalingFactor = BASE;\n        _teaBalances[initial_owner] = initSupply_.mul(10**24 / (BASE));\n\n        // owner renounces ownership after deployment as they need to set\n        // rebaser and incentivizer\n        // gov = gov_;\n    }\n}\n",
  "sourcePath": "/Users/fatel/Desktop/yam-protocol/contracts/token/TEA.sol",
  "compiler": {
    "name": "solc",
    "version": "0.5.17+commit.d19bba13.Emscripten.clang"
  },
  "schemaVersion": "3.2.3",
  "updatedAt": "2020-09-01T20:10:24.371Z",
  "devdoc": {
    "methods": {
      "_setIncentivizer(address)": {
        "params": {
          "incentivizer_": "The address of the rebaser contract to use for authentication."
        }
      },
      "_setPendingGov(address)": {
        "params": {
          "pendingGov_": "The address of the rebaser contract to use for authentication."
        }
      },
      "_setRebaser(address)": {
        "params": {
          "rebaser_": "The address of the rebaser contract to use for authentication."
        }
      },
      "allowance(address,address)": {
        "details": "Function to check the amount of tokens that an owner has allowed to a spender.",
        "params": {
          "owner_": "The address which owns the funds.",
          "spender": "The address which will spend the funds."
        },
        "return": "The number of tokens still available for the spender."
      },
      "approve(address,uint256)": {
        "details": "Approve the passed address to spend the specified amount of tokens on behalf of msg.sender. This method is included for ERC20 compatibility. increaseAllowance and decreaseAllowance should be used instead. Changing an allowance with this method brings the risk that someone may transfer both the old and the new allowance - if they are both greater than zero - if a transfer transaction is mined before the later approve() call is mined.",
        "params": {
          "spender": "The address which will spend the funds.",
          "value": "The amount of tokens to be spent."
        }
      },
      "balanceOf(address)": {
        "params": {
          "who": "The address to query."
        },
        "return": "The balance of the specified address."
      },
      "balanceOfUnderlying(address)": {
        "params": {
          "who": "The address to query."
        },
        "return": "The underlying balance of the specified address."
      },
      "decreaseAllowance(address,uint256)": {
        "details": "Decrease the amount of tokens that an owner has allowed to a spender.",
        "params": {
          "spender": "The address which will spend the funds.",
          "subtractedValue": "The amount of tokens to decrease the allowance by."
        }
      },
      "delegate(address)": {
        "params": {
          "delegatee": "The address to delegate votes to"
        }
      },
      "delegateBySig(address,uint256,uint256,uint8,bytes32,bytes32)": {
        "params": {
          "delegatee": "The address to delegate votes to",
          "expiry": "The time at which to expire the signature",
          "nonce": "The contract state required to match the signature",
          "r": "Half of the ECDSA signature pair",
          "s": "Half of the ECDSA signature pair",
          "v": "The recovery byte of the signature"
        }
      },
      "delegates(address)": {
        "params": {
          "delegator": "The address to get delegatee for"
        }
      },
      "getCurrentVotes(address)": {
        "params": {
          "account": "The address to get votes balance"
        },
        "return": "The number of current votes for `account`"
      },
      "getPriorVotes(address,uint256)": {
        "details": "Block number must be a finalized block or else this function will revert to prevent misinformation.",
        "params": {
          "account": "The address of the account to check",
          "blockNumber": "The block number to get the vote balance at"
        },
        "return": "The number of votes the account had as of the given block"
      },
      "increaseAllowance(address,uint256)": {
        "details": "Increase the amount of tokens that an owner has allowed to a spender. This method should be used instead of approve() to avoid the double approval vulnerability described above.",
        "params": {
          "addedValue": "The amount of tokens to increase the allowance by.",
          "spender": "The address which will spend the funds."
        }
      },
      "initialize(string,string,uint8,address,uint256)": {
        "params": {
          "decimals_": "ERC-20 decimal precision of this token",
          "name_": "ERC-20 name of this token",
          "symbol_": "ERC-20 symbol of this token"
        }
      },
      "mint(address,uint256)": {
        "details": "Limited to onlyMinter modifier"
      },
      "rebase(uint256,uint256,bool)": {
        "details": "The supply adjustment equals (totalSupply * DeviationFromTargetRate) / rebaseLag     Where DeviationFromTargetRate is (MarketOracleRate - targetRate) / targetRate     and targetRate is CpiOracleRate / baseCpi"
      },
      "transfer(address,uint256)": {
        "details": "Transfer tokens to a specified address.",
        "params": {
          "to": "The address to transfer to.",
          "value": "The amount to be transferred."
        },
        "return": "True on success, false otherwise."
      },
      "transferFrom(address,address,uint256)": {
        "details": "Transfer tokens from one address to another.",
        "params": {
          "from": "The address you want to send tokens from.",
          "to": "The address you want to transfer to.",
          "value": "The amount of tokens to be transferred."
        }
      }
    }
  },
  "userdoc": {
    "methods": {
      "_acceptGov()": {
        "notice": "lets msg.sender accept governance     "
      },
      "_setIncentivizer(address)": {
        "notice": "sets the incentivizer"
      },
      "_setPendingGov(address)": {
        "notice": "sets the pendingGov"
      },
      "_setRebaser(address)": {
        "notice": "sets the rebaser"
      },
      "balanceOfUnderlying(address)": {
        "notice": "Currently returns the internal storage amount"
      },
      "delegate(address)": {
        "notice": "Delegate votes from `msg.sender` to `delegatee`"
      },
      "delegateBySig(address,uint256,uint256,uint8,bytes32,bytes32)": {
        "notice": "Delegates votes from signatory to `delegatee`"
      },
      "delegates(address)": {
        "notice": "Delegate votes from `msg.sender` to `delegatee`"
      },
      "getCurrentVotes(address)": {
        "notice": "Gets the current votes balance for `account`"
      },
      "getPriorVotes(address,uint256)": {
        "notice": "Determine the prior number of votes for an account as of a block number"
      },
      "initialize(string,string,uint8,address,uint256)": {
        "notice": "Initialize the new money market"
      },
      "maxScalingFactor()": {
        "notice": "Computes the current max scaling factor"
      },
      "mint(address,uint256)": {
        "notice": "Mints new tokens, increasing totalSupply, initSupply, and a users balance."
      },
      "rebase(uint256,uint256,bool)": {
        "notice": "Initiates a new rebase operation, provided the minimum time period has elapsed."
      }
    }
  }
}